:100000000C9408070C944C070C944C070C944C0768
:100010000C944C070C944C070C944C070C944C0714
:100020000C944C070C944C070C944C070C944C0704
:100030000C944C070C94F5120C94CB120C944C07B6
:100040000C944C070C944C070C944C070C944C07E4
:100050000C944C070C944C070C944C070C944C07D4
:100060000C944C070C944C070C944C070C944C07C4
:10007000D822A122A322A522A722A922AB22AD2207
:10008000D622AF22B222B522B822BA22BD225A55B8
:1000900001200101003808000000000000000000FD
:1000A00000000000000000000000000000008100CF
:1000B00045005DFF5E0F27FF2AD22B7D210C22FB1E
:1000C000850084008907881B8B008A4781096F0699
:1000D000444247004501B083B300B10124B925571C
:1000E000FAFAFAFA8000000380000003C000000260
:1000F000C00000028000000380000003C000000276
:10010000C00000028000000380000003C000000265
:10011000C00000028000000380000003C000000255
:10012000C00000028000000380000003C000000245
:10013000C00000028000000380000003FAFAFAFA0F
:10014000EBEBEBEBC000000380000002800000023C
:10015000C0000003C0000003800000028000000215
:10016000C0000003C0000003800000028000000205
:10017000C0000003C00000038000000280000002F5
:10018000C0000003C00000038000000280000002E5
:10019000C0000003C000000380000002BEBEBEBE5F
:1001A0000003C0000003C0000003C0000003C00043
:1001B0000003C0000003C000000FF0000003C000F7
:1001C0000003C000000FF000000C3000000FF00032
:1001D0000003C0000003C000000FF000000C30005E
:1001E000003C3C00000FF0000003C0000003C00012
:1001F000000FF000003C3C0000300C00003C3C00D4
:10020000000FF0000003C0000003C000000FF0006A
:10021000003C3C0000300C0000F00F00003C3C00B3
:10022000000FF0000003C0000003C000000FF0004A
:10023000003C3C0000F00F0000C0030000F00F0085
:10024000003C3C00000FF0000003C0000003C000B1
:10025000000FF000003C3C0000F00F0000C0030065
:1002600003C003C000F00F00003C3C00000FF00092
:100270000003C0000003C000000FF000003C3C0081
:1002800000F00F0003C003C0030000C003C003C0A0
:1002900000F00F00003C3C00000FF0000003C00025
:1002A0000003C000000FF000003C3C0000F00F0015
:1002B00003C003C0030000C00F0000F003C003C070
:1002C00000F00F00003C3C00000FF0000003C000F5
:1002D0000003C000000FF000003C3C0000F00F00E5
:1002E00003C003C00F0000F00C0000300F0000F04E
:1002F00003C003C000F00F00003C3C00000FF00002
:100300000003C0000003C000000FF000003C3C00F0
:1003100000F00F0003C003C00F0000F00C0000301D
:10032000000200000002000000020000000B80003C
:10033000002FE00000A128000001000000020000E2
:100340000002000000020000000B800000AFE80087
:100350000001000000010000000200000002000097
:1003600000020000008B8800002FE0000001000068
:1003700000010000000200000002000000820800EE
:10038000002BA000000FC0000001000000010000D1
:100390000003000000030000000EC0000002000087
:1003A000000200000002000000030000020B8200B7
:1003B0000AAFEA80AABFFAA82AC10EA00001000075
:1003C0000001000000030000000100000003000025
:1003D00000030000000EC000000200000002000048
:1003E0000002000000030000000B800002AFEA00E2
:1003F0000ABFFA80AAC10EA8280100A000010000CF
:1004000000030000000100000003000000030000E2
:10041000000EC00000020000000200000002000008
:1004200000030000000B8000002FE00002AFEA0094
:100430000AB13A802AC10EA00001000000030000AA
:10044000000100000003000000030000000EC000D7
:100450000002000000020000000200000003000093
:10046000000B8000022BA2002AAFEAA00AB13A805A
:1004700002C10E00000100000003000000010000A6
:100480000003000000030000000EC0000002000096
:100490000002000000020000208308202AABAAA06E
:1004A0000AABAA8002BFFA0000C10C0000010000E4
:1004B0000001000000030000000100000003000034
:1004C00000030000000EC000000200000002000057
:1004D000200200202A8B8AA00AABAA8002AFEA0081
:1004E00000FFFC000001000000010000000100000E
:1004F00000030000000100000003000000030000F2
:10050000000EC00000020000000200000002000017
:10051000020B8200AAABAAA82AAFEAA002FFFE0043
:1005200000010000000100000001000000030000C5
:100530000001000000000003000000030000000FA5
:100540000000000E00000002000000020000000297
:1005500000000002000000020000000A0000000B82
:100560000000002A000000AB00020AABA02AAAAFDC
:100570002AAAAABF0AAAAFFF00AAFC0F0003C00163
:10058000000000030000000100000005000000055D
:100590000000000100000001000000030000000353
:1005A0000000000F0000000E00000002000000022A
:1005B0000000000200000002000000020000000A2B
:1005C0000000000B0000002A000000AB000002AB9E
:1005D0000002AAAF000AAABF00AAABFFAAAABF0FD7
:1005E0000AAAF001002BC003000000010000000572
:1005F00000000005000000010000000100000003F1
:10060000000000030000000F0000000E00000002C8
:1006100000000002000000020000000200000002D2
:10062000000000020000000B0000000A0000002B88
:10063000000000AB00000AAF0000AABF0002ABFF41
:10064000002AAF0F2AAAAC010AAAB003002AC001EF
:10065000000000050000000500000001000000018E
:1006600000000003000000030000000F0000000E67
:100670000000000200000002000000020000000272
:1006800000000002000000020000000B0000000A51
:100690000000002B000000AB08000AAF0A82AABFCE
:1006A00002AAABFF02AAAF0F00AAAC01002AB00356
:1006B0000002C0010000000500000005000000016C
:1006C0000000000100000003000000030000000F14
:1006D0000000000E00000002000000020000000206
:1006E00000000002000000020000000A0800000BE9
:1006F0000A00002A028000AB02AA0AAB00AAAAAF35
:1007000000AAAABF002AAFFF000AFC0F0003C00125
:1007100000000003000000010000000500000005CB
:1007200000000001000000010000000300000003C1
:100730000000000F0000000E000000020000000298
:100740000000000200000002000000022000000A79
:100750002800002B0A8000AA0AAA0AAB02AAAAABA8
:1007600000AAABAF002AAFFF000AFCFF0003C00FD6
:10077000000000010000000300000001000000056F
:10078000000000050000000100000001000000035F
:10079000000000030000000F0000000E0000000237
:1007A0000000000200000002000000020000000241
:1007B0000000000A0000002BA00000AA2A020AABD9
:1007C0000AAAAAAB02AAABAF00AAAFFF002AFCFF9D
:1007D0000003C00F00000001000000030000000142
:1007E00000000005000000050000000100000001FD
:1007F0000000000800000026000002A6A000AA6A6F
:100800002AAAAA9A0AA665A6002AAA5A000002AA3B
:10081000000000030000000800000026000000A601
:1008200000000AAAA002AA5A2AAAAAA60AA6655ADB
:10083000000AAAAA00000003000000020A00000942
:1008400002A000A900AAAA9A00299AA60002A969F2
:1008500000000A960000002A0A00000002A0000022
:1008600000AA0002002AA82A0009AA9900029A995F
:10087000000029A600000A5A000000A60000000A95
:1008800000000003020000000280000000A0000041
:1008900000A80000002A8000000AA80000026A8068
:1008A0000000AAAA000026A6000009A6000002690E
:1008B000000000950000002A000000020000000374
:1008C000020000000280000000A0000000A800005C
:1008D000002A8000000AA80000026A800000AAAA7C
:1008E000000026A6000009A6000002690000009989
:1008F000000000260000000A0000000200000003C3
:10090000280000000AA8000A02AAAAAA0029AAA68A
:1009100000029AA900002959000002A60000000A5E
:1009200000000003000000030000000300000001BD
:10093000000000070000000D000000360000000E5F
:10094000000000020000000200000002000000326F
:1009500000000032000000320000003E0000000EE7
:100960000000000A0000000A0000002A0000002A1F
:100970000000009B000002AA00000A6B0000AA9B76
:10098000802AA6ABAAA6A96F666AFABF66ABFFFF6C
:100990006ABFFFFFABFF03FFFFC0003FC000000FB7
:1009A000000000070000000100000003000000013B
:1009B0000000000300000001000000010000003101
:1009C000000000310000000D0000000500000005DF
:1009D000000000010000000100000003000000030F
:1009E00000000001000000070000000D00000036BC
:1009F0000000000E000000020000000200000002E3
:100A00000000003200000032000000320000003E12
:100A10000000000E0000000A0000000A0000002A8A
:100A20000000002A0000009B000002AA00000AABA0
:100A300000002A5B0002AAAB00AAA56FAAA6AABF63
:100A4000A66BEBFF66AFFFFF6AFFFFFF6BFC00FFCB
:100A5000AFC0000FFC000007C00000010000000351
:100A60000000000100000003000000010000000180
:100A700000000031000000310000000D0000000502
:100A8000000000050000000100000001000000035C
:100A90000000000300000001000000070000000D3E
:100AA000000000360000000E0000000200000002FE
:100AB000000000020000003200000032000000329E
:100AC0000000003E0000000E0000000A0000000AC6
:100AD0000000002A0000002A0000009B000002AA7B
:100AE00000000AAB00002A5B0002AAAB002AA56F37
:100AF00082A6AABFAA6BEBFF99AFFFFF99BFFFFFCA
:100B00009AFC00FFABF0000FAF0000073C000001B3
:100B1000F0000003000000010000000300000001DD
:100B20000000000100000031000000310000000D55
:100B300000000005000000050000000100000001A9
:100B40000000000300000003000000010000000797
:100B50000000000D000000360000000E0000000242
:100B6000000000020000000200000032000000321D
:100B7000000000320000003E0000000E0000000AED
:100B80000000000A0000002A0000002A0000009B6C
:100B9000000002AA00000AAB00002A5B0002AAAB18
:100BA00000A9A56FAA9AAABF99ABEBFF99AFFFFF67
:100BB0009AFFFFFFABFC00FFAFC0000FFC00000777
:100BC000C00000010000000300000001000000035D
:100BD00000000001000000010000003100000031B1
:100BE0000000000D000000050000000500000001ED
:100BF00000000001000000030000000300000001ED
:100C0000000000070000000D000000360000000E8C
:100C1000000000020000000200000002000000329C
:100C200000000032000000320000003E0000000E14
:100C30000000000A0000000A0000002A0000002A4C
:100C40000000009B000002AA00000A6B8000AA9B23
:100C5000602AA6AB6AA9A96F999AFABF99ABFFFF60
:100C60009ABFFFFFABFF03FFFFC0003FC000000FB4
:100C70000000000700000001000000030000000168
:100C8000000000030000000100000001000000312E
:100C9000000000310000000D00000005000000050C
:100CA000000000010000000100000003000000033C
:100CB00000000001000000070000000D00000036E9
:100CC0000000000E00000002000000020000000210
:100CD0000000003200000032000000320000003E40
:100CE0000000000E0000000A0000000A0000002AB8
:100CF0000000002A0000009B80000AAA6802AA6B7C
:100D00006AA9A69B999AA9AB99AAFA6F9AAFFFBF55
:100D1000ABFFFFFFFFFC0FFFC00000FF0000003F24
:100D20000000000F000000070000000100000003A9
:100D300000000001000000030000000100000001AD
:100D400000000031000000310000000D000000052F
:100D50000000000500000001000000010000000389
:100D60000000000300000001000000070000000D6B
:100D7000000000360000000E00000002000000022B
:100D800000000002000000320000003200000032CB
:100D90000000003E0000000E0000000A0000000AF3
:100DA0000000002A0000002A8000009B68002AAA98
:100DB0006AAAAA6B9999A69B99AAA9AB9AAAFA6F53
:100DC000ABFFFFBFFFFFFFFFC0000FFF000000FFF2
:100DD0000000003F0000000F0000000700000001BD
:100DE00000000003000000010000000300000001FB
:100DF0000000000100000031000000310000000D83
:100E000000000005000000050000000100000001D6
:100E100011241FBECFEFD0E1DEBFCDBF2EE0A0E09A
:100E2000B1E001C01D92AD31B207E1F714BE0FB6BB
:100E3000F894A8958091600088618093600010927A
:100E400060000FBE0E948B1D811102C00E94691DAF
:100E5000F8940E94B6131092C50181E08093C401FA
:100E60008AEC8093C9018FE18093C8010E94A21D82
:100E70008EEA90E0FC0125913491F901FF2730833F
:100E8000029620E0803E9207A9F778940E94F01D18
:100E90000E9431390C94CF390C9400000EB20092AC
:100EA000EB100AB40092EC100BB40092ED100EB6E9
:100EB0000092EF100DB60092EE1020E12EBF2DEF44
:100EC0002DBFC3E7D1E0A0E0B1E088E09D9198A7F5
:100ED0009D9199A7229628D300C08A95B9F7EBED8A
:100EE000F0E1A0E1B1E088E09D9191939D91919313
:100EF0008A95D1F7E0917001EEBBE07FE2954E2F2D
:100F0000440FE40FBEB7AEEFFF27E857F84F099440
:100F100087E49AE02DC084EC9AE02AC087E49AE046
:100F200027C087E49AE024C087E49AE021C087E4E0
:100F30009AE01EC087E49AE01BC087E49AE018C0DC
:100F400087E49AE015C087E49AE012C087E49AE04B
:100F50000FC087E49AE00CC087E49AE009C087E4F8
:100F60009AE006C087E49AE003C087E49AE000C0F4
:100F70009D938D938BE38A95F1F700C010912F011B
:100F80004091C7015091C3106091C2107091C4107C
:100F9000660F660F660F415008F468C1471708F4E2
:100FA000742F272F31E0231708F4322F231B30939F
:100FB000F01031E03093F410251708F4522F251B60
:100FC0005093F310261708F4622F261B6093F2103B
:100FD0002093F110072F0395471B31E009F430E00F
:100FE0003093F51009F04A955091CC106091CB10D8
:100FF0007091CD10660F660F660F471708F4742FB7
:10100000272F31E0231708F4322F231B3093F910D8
:10101000251708F4522F251B5093F810261708F4B3
:10102000622F261B6093F7102093F610471B040FC6
:10103000015E0BBD2FE14EE44A95F1F700C000912F
:10104000F010003009F409C040E24A95F1F70000C1
:101050004091C710F7D1C0D123950091F110003015
:1010600011F40CC000C04EE14A95F1F70000F5D133
:10107000B3D123950A95B1F700C000C00091F210DA
:10108000003009F424C0C091C010D091C11030913B
:10109000C210330F330F330F301B632F66956695E5
:1010A000669578E2679FC00DD11D04C049E04A955E
:1010B000F1F700C045E14A95F1F70000CED1A9D182
:1010C00023950A9599F743E04A95F1F700000091BE
:1010D000F310003029F411C044E04A95F1F700C044
:1010E0004AE14A95F1F70000B8D176D123950A95E7
:1010F00099F745E04A95F1F700004BE04A95F1F782
:10110000000020902001A4E2B1E06D907D908D90D0
:101110009D90AD90BD90CD90DD90ED90FD900D91A6
:1011200030917101320F3052BEB7A0E14091C8102A
:1011300089D124D0289820D01DD01CD01BD01AD003
:1011400019D0289A00004D934D9314D013D012D08B
:1011500011D010D00FD00ED00DD00CD018B90ED0A9
:1011600009D008D007D006D0EFE0EDBF0F9008B847
:101170000C9476094D934D934D934D934D934D9310
:101180004D934D9308950F9008B848E900C00000B2
:101190000F9008B84A95D9F7EDEFEDBF00C018B928
:1011A00044E24A95F1F700C0442748B90091F51090
:1011B000003009F409C040E24A95F1F74091D1109E
:1011C00041D10AD1239500000091F810003011F4AC
:1011D0000BC044914EE14A95F1F74CD1FDD02395D7
:1011E0000A95B9F7449100C00091F710003009F456
:1011F00017C0C091C910D091CA10332704C045E070
:101200004A95F1F7000049E14A95F1F700C032D163
:1012100000D123950A9599F743E04A95F1F700C06C
:101220000091F610003021F40FC045E04A95F1F727
:101230004AE14A95F1F71ED1CFD023950A95A9F737
:1012400045E04A95F1F700C00091F910003009F42B
:1012500011C048E14A95F1F74091D010F3D0BCD0CD
:10126000239547E04A95F1F700C004C042E74A954C
:10127000F1F700004FE14A95F1F700C0289899D0A6
:101280004091C701E091C4014395E41BE093C40180
:10129000E091C50142E0E160E427E093C5010090E0
:1012A000EB100EBA0090EC100ABC0090ED100BBCD5
:1012B0000090EF100EBE0090EE100DBE8091D21087
:1012C0009091D31048E14A95F1F700C0289AE2E0E6
:1012D000E0933600182E192A09F408956FEF70E193
:1012E0006DBF7EBF11248F939F93189563E00F907D
:1012F00008B8E0911203F09113030F9008B87191B0
:101300007093B3000F9008B8E231F60762ED71E018
:101310000F9008B808F0FB01E09312030F9008B893
:10132000F093130323951BB40F9008B8211509F40B
:101330002ACF33950F9008B800C000C00F9008B8AE
:1013400000C02ABC00000F9008B89091D410F1E0C2
:10135000E32F0F9008B8E695E695EE73E05D0F90E9
:1013600008B8FF4FC19100000F9008B8D191ED2F40
:10137000DF700F9008B8E295A0E1E770AE1B0F9008
:1013800008B830902101409022010F9008B8509089
:101390002301E32FE7700F9008B8FF27EE5CFA4EA9
:1013A00044E10F9008B85F911F900F9058B9E894EE
:1013B000099463E0E0911203F0911303719170932B
:1013C000B300E231F60762ED71E008F0FB01E09353
:1013D0001203F093130308952898EBDF64E26A95F3
:1013E000F1F7289A66E46A95F1F700C018B965E24A
:1013F0006A95F1F748B960E06A95F1F765E76A9593
:10140000F1F718B964E26A95F1F700C0662768B988
:1014100008952898CEDF64E26A95F1F7289A66E489
:101420006A95F1F700C018B967E16A95F1F7452EA2
:10143000542E0E94B71261E26A95F1F700C0662748
:1014400068B908955091700100C000C0E0912F016B
:1014500050FD4E2FF299142F08954091C5105091D0
:10146000C61000C000C060912F01F299162FF399A9
:10147000462F08954091CE105091CF1000C000C06B
:1014800060912F01F299162FF399462F089546E1A6
:101490004A95F1F748B949E24A95F1F700C0289812
:1014A0004CE24A95F1F700C0289A46E44A95F1F7D4
:1014B00000C018B943E24A95F1F700C0EFE0EDBF74
:1014C0000F9008B80C947609E881F9814190420E9A
:1014D000A191A03B08F0A0EB31905190569478F484
:1014E0005694B0F45414D8F03D923D923D923D9202
:1014F00019F4E993F99308950000229608955694FB
:1015000050F4541468F03D923D923D9291F3F4CF23
:10151000541430F0F9CF541420F000C0E8CF00008C
:101520000000A49100C0E8CF2297E8A5F9A5F0300B
:10153000C1F05191599351915993519158A751919B
:1015400059A75191503B08F050EB5AA7519159932C
:10155000519159935191599351915BA351915CA32E
:101560000895F883F98325965CE05A95F1F708957C
:10157000C3E7D1E0E4E0EA95F1F700C048B9E3E061
:10158000EA95F1F7000080C0EDEFEDBF84E0CBED10
:10159000D0E19ADF923060F3E881F9814190420E08
:1015A000A191A03B08F0A0EB31905190569448B91E
:1015B00060F4569498F45414C0F03D923D923D92DC
:1015C0003D92C9F00000229618C0569450F454146D
:1015D00068F03D923D923D9269F0F5CF541430F0A1
:1015E000F9CF541420F000C0EBCF00000000A4910C
:1015F00000C0E9CF0000E993F99366DF65DF95301D
:1016000038F4C3E7D1E0E5E0EA95F1F700007CC0EB
:10161000E881F9814190420EA191A03B08F0A0EB36
:1016200031905190569470F4000028985694A8F484
:101630005414D0F03D923D923D923D92D9F000007D
:1016400022961AC028980000569450F4541468F05A
:101650003D923D923D9269F0F3CF541430F0F9CFB2
:10166000541420F000C0E9CF00000000A49100C095
:10167000E7CF0000E993F99327DF26DFC3E7D1E046
:10168000E491E49100C082C00990020E1990011407
:10169000C0F4089EE8A5E00DF9A5F11DAAA53990B2
:1016A000499059900AF1F13730F4659155911590B0
:1016B0000590FBE321C0F057619151911190019089
:1016C000F8CF31F431DFEEE0EA95F1F700C01CC04D
:1016D0002396E1E2EA95F1F717C0F05F01901190CF
:1016E00051916191000007C0F13FB8F7FF77059075
:1016F000159055916591FAE3E62F0995E52F099527
:10170000E12D0995E02D0995289800000990020E19
:1017100019900114C0F4089EE8A5E00DF9A5F11D8B
:10172000AAA53990499059900AF1F13730F46591A2
:10173000559115900590FBE321C0F05761915191AF
:1017400011900190F8CF31F4EFDEEEE0EA95F1F779
:1017500000C01CC02396E1E2EA95F1F717C0F05FE4
:101760000190119051916191000007C0F13FB8F7CD
:10177000FF770590159055916591FAE3E62F09954D
:10178000E52F0995E12D0995E02D09950990020EA7
:1017900019900114C8F4089EE8A5E00DF9A5AAA5C2
:1017A00039904990289A5990F11D32F1F13730F46F
:1017B0006591559115900590FBE326C0F057619116
:1017C000519111900190F8CFE491E491E491E4916A
:1017D000289A31F4A9DEEAE0EA95F1F700C01CC0CE
:1017E0002396EDE1EA95F1F717C0F05F01901190B3
:1017F00051916191000007C0F13FB8F7FF77059064
:10180000159055916591FAE3E62F0995E52F099515
:10181000E12D0995E02D09950990020E199001140A
:10182000C0F4089EE8A5E00DF9A5F11DAAA5399020
:10183000499059900AF1F13730F46591559115901E
:101840000590FBE321C0F0576191519111900190F7
:10185000F8CF31F469DEEEE0EA95F1F700C01CC084
:101860002396E1E2EA95F1F717C0F05F019011903D
:1018700051916191000007C0F13FB8F7FF770590E3
:10188000159055916591FAE3E62F0995E52F099595
:10189000E12D0995E02D09950990020E199001148A
:1018A00018B9C0F4089EE8A5E00DF9A5F11DAAA598
:1018B0003990499059900AF1F13730F4659155917A
:1018C00015900590FBE321C0F05761915191119063
:1018D0000190F8CF31F428DEEEE0EA95F1F700C090
:1018E0001CC02396E1E2EA95F1F717C0F05F019082
:1018F000119051916191000007C0F13FB8F7FF7757
:101900000590159055916591FAE3E62F0995E52F1D
:101910000995E12D0995E02D0995EFE0EDBF0F90B8
:1019200008B80C94760918B93395377011F0A89758
:10193000089500000895A8B881F0069EA8B8F001A7
:10194000E954A8B8F14F0994B8B839F0069EA8B880
:10195000F001E954A8B8F14F09940000A8B8219704
:10196000A8B8E1CFA8B881F0069EB8B8F001E95454
:10197000A8B8F14F0994B8B839F0069EB8B8F0018C
:10198000E954A8B8F14F09940000B8B82197A8B855
:10199000CACFA8B881F0069EA8B8F001E954B8B83B
:1019A000F14F0994B8B839F0069EA8B8F001E9548F
:1019B000B8B8F14F09940000A8B82197B8B8B3CFD0
:1019C000A8B881F0069EB8B8F001E954B8B8F14F54
:1019D0000994B8B839F0069EB8B8F001E954B8B81F
:1019E000F14F09940000B8B82197B8B89CCFF72FF1
:1019F000A8B81197A8B80490A8B89DCFF72FB8B889
:101A00001197A8B80490A8B896CFF72FA8B8119747
:101A1000B8B80490A8B88FCFF72FB8B81197B8B856
:101A20000490A8B888CFF72FA8B81197A8B8049049
:101A3000B8B881CFF72FB8B81197A8B80490B8B844
:101A40007ACFF72FA8B81197B8B80490B8B873CF69
:101A5000F72FB8B81197B8B80490B8B86CCFF72F73
:101A6000A8B81197A8B80490A8B86ECFF72FB8B847
:101A70001197A8B80490A8B867CFF72FA8B8119706
:101A8000B8B80490A8B860CFF72FB8B81197B8B815
:101A90000490A8B859CFF72FA8B81197A8B8049008
:101AA000B8B852CFF72FB8B81197A8B80490B8B803
:101AB0004BCFF72FA8B81197B8B80490B8B844CF57
:101AC000F72FB8B81197B8B80490B8B83DCFF72F32
:101AD000A8B81197A8B80490A8B844CFF72FB8B801
:101AE0001197A8B80490A8B83DCFF72FA8B81197C0
:101AF000B8B80490A8B836CFF72FB8B81197B8B8CF
:101B00000490A8B82FCFF72FA8B81197A8B80490C1
:101B1000B8B828CFF72FB8B81197A8B80490B8B8BC
:101B200021CFF72FA8B81197B8B80490B8B81ACF3A
:101B3000F72FB8B81197B8B80490B8B813CFF72FEB
:101B4000A8B81197A8B80490A8B815CFF72FB8B8BF
:101B50001197A8B80490A8B80ECFF72FA8B811977E
:101B6000B8B80490A8B807CFF72FB8B81197B8B88D
:101B70000490A8B800CFF72FA8B81197A8B8049080
:101B8000B8B8F9CEF72FB8B81197A8B80490B8B87C
:101B9000F2CEF72FA8B81197B8B80490B8B8EBCE2A
:101BA000F72FB8B81197B8B80490B8B8E4CEF72FAB
:101BB000A8B81197A8B80490A8B8EBCEF72FB8B87A
:101BC0001197A8B80490A8B8E4CEF72FA8B8119739
:101BD000B8B80490A8B8DDCEF72FB8B81197B8B848
:101BE0000490A8B8D6CEF72FA8B81197A8B804903B
:101BF000B8B8CFCEF72FB8B81197A8B80490B8B836
:101C0000C8CEF72FA8B81197B8B80490B8B8C1CE0D
:101C1000F72FB8B81197B8B80490B8B8BACEF72F64
:101C2000A8B81197A8B80490A8B8BCCEF72FB8B838
:101C30001197A8B80490A8B8B5CEF72FA8B81197F7
:101C4000B8B80490A8B8AECEF72FB8B81197B8B806
:101C50000490A8B8A7CEF72FA8B81197A8B80490F9
:101C6000B8B8A0CEF72FB8B81197A8B80490B8B8F4
:101C700099CEF72FA8B81197B8B80490B8B892CEFB
:101C8000F72FB8B81197B8B80490B8B88BCEF72F23
:101C9000A8B81197A8B80490A8B892CEF72FB8B8F2
:101CA0001197A8B80490A8B88BCEF72FA8B81197B1
:101CB000B8B80490A8B884CEF72FB8B81197B8B8C0
:101CC0000490A8B87DCEF72FA8B81197A8B80490B3
:101CD000B8B876CEF72FB8B81197A8B80490B8B8AE
:101CE0006FCEF72FA8B81197B8B80490B8B868CEDF
:101CF000F72FB8B81197B8B80490B8B861CEF72FDD
:101D0000A8B81197A8B80490A8B863CEF72FB8B8B0
:101D10001197A8B80490A8B85CCEF72FA8B811976F
:101D2000B8B80490A8B855CEF72FB8B81197B8B87E
:101D30000490A8B84ECEF72FA8B81197A8B8049071
:101D4000B8B847CEF72FB8B81197A8B80490B8B86C
:101D500040CEF72FA8B81197B8B80490B8B839CECC
:101D6000F72FB8B81197B8B80490B8B832CEA8B861
:101D7000E991A8B83CCEB8B8E991A8B838CEA8B8CF
:101D8000E991B8B834CEB8B8E991B8B830CEA8B8AF
:101D9000E991A8B833CEB8B8E991A8B82FCEA8B8C1
:101DA000E991B8B82BCEB8B8E991B8B827CEA8B8A1
:101DB000E991A8B82ACEB8B8E991A8B826CEA8B8B3
:101DC000E991B8B822CEB8B8E991B8B81ECEA8B893
:101DD000E991A8B821CEB8B8E991A8B81DCEA8B8A5
:101DE000E991B8B819CEB8B8E991B8B815CEA8B885
:101DF000E991A8B818CEB8B8E991A8B814CEA8B897
:101E0000E991B8B810CEB8B8E991B8B80CCEA8B876
:101E1000E991A8B80FCEB8B8E991A8B80BCEA8B888
:101E2000E991B8B807CEB8B8E991B8B803CEA8B868
:101E3000E991A8B806CEB8B8E991A8B802CEA8B87A
:101E4000E991B8B8FECDB8B8E991B8B8FACDA8B85C
:101E5000E991A8B8FDCDB8B8E991A8B8F9CDA8B86E
:101E6000E991B8B8F5CDB8B8E991B8B8F1CDA8B84E
:101E7000E991A8B8F4CDB8B8E991A8B8F0CDA8B860
:101E8000E991B8B8ECCDB8B8E991B8B8E8CDA8B840
:101E9000E991A8B8EBCDB8B8E991A8B8E7CDA8B852
:101EA000E991B8B8E3CDB8B8E991B8B8DFCDA8B832
:101EB000E991A8B8E2CDB8B8E991A8B8DECDA8B844
:101EC000E991B8B8DACDB8B8E991B8B8D6CDA8B824
:101ED000E991A8B8D9CDB8B8E991A8B8D5CDA8B836
:101EE000E991B8B8D1CDB8B8E991B8B8CDCDA8B816
:101EF000E991A8B8D0CDB8B8E991A8B8CCCDA8B828
:101F0000E991B8B8C8CDB8B8E991B8B8C4CDA8B807
:101F1000E991A8B8C7CDB8B8E991A8B8C3CDA8B819
:101F2000E991B8B8BFCDB8B8E991B8B8BBCDA8B8F9
:101F3000E991A8B8BECDB8B8E991A8B8BACDA8B80B
:101F4000E991B8B8B6CDB8B8E991B8B8B2CDA8B8EB
:101F5000E991A8B8B5CDB8B8E991A8B8B1CDA8B8FD
:101F6000E991B8B8ADCDB8B8E991B8B8A9CDA8B8DD
:101F7000E991A8B8ACCDB8B8E991A8B8A8CDA8B8EF
:101F8000E991B8B8A4CDB8B8E991B8B8A0CDA8B8CF
:101F9000E991A8B8A3CDB8B8E991A8B89FCDA8B8E1
:101FA000E991B8B89BCDB8B8E991B8B897CDA8B8C1
:101FB000E991A8B89ACDB8B8E991A8B896CDA8B8D3
:101FC000E991B8B892CDB8B8E991B8B88ECDA8B8B3
:101FD000E991A8B891CDB8B8E991A8B88DCDA8B8C5
:101FE000E991B8B889CDB8B8E991B8B885CDA8B8A5
:101FF000E991A8B888CDB8B8E991A8B884CDA8B8B7
:10200000E991B8B880CDB8B8E991B8B87CCDA8B896
:10201000E991A8B87FCDB8B8E991A8B87BCDA8B8A8
:10202000E991B8B877CDB8B8E991B8B873CDA8B888
:10203000E991A8B876CDB8B8E991A8B872CDA8B89A
:10204000E991B8B86ECDB8B8E991B8B86ACDA8B87A
:10205000E991A8B86DCDB8B8E991A8B869CDA8B88C
:10206000E991B8B865CDB8B8E991B8B861CDA8B86C
:10207000E991A8B864CDB8B8E991A8B860CDA8B87E
:10208000E991B8B85CCDB8B8E991B8B858CDA8B85E
:10209000E991A8B85BCDB8B8E991A8B857CDA8B870
:1020A000E991B8B853CDB8B8E991B8B84FCDA8B850
:1020B000E991A8B852CDB8B8E991A8B84ECDA8B862
:1020C000E991B8B84ACDB8B8E991B8B846CDA8B842
:1020D000E991A8B849CDB8B8E991A8B845CDA8B854
:1020E000E991B8B841CDB8B8E991B8B83DCDA8B834
:1020F000E991A8B840CDB8B8E991A8B83CCDA8B846
:10210000E991B8B838CDB8B8E991B8B834CDA8B825
:10211000E991A8B837CDB8B8E991A8B833CDA8B837
:10212000E991B8B82FCDB8B8E991B8B82BCDA8B817
:10213000E991A8B82ECDB8B8E991A8B82ACDA8B829
:10214000E991B8B826CDB8B8E991B8B822CDA8B809
:10215000E991A8B825CDB8B8E991A8B821CDA8B81B
:10216000E991B8B81DCDB8B8E991B8B819CDA8B8FB
:10217000E991A8B81CCDB8B8E991A8B818CDA8B80D
:10218000E991B8B814CDB8B8E991B8B810CDA8B8ED
:10219000E991A8B813CDB8B8E991A8B80FCDA8B8FF
:1021A000E991B8B80BCDB8B8E991B8B807CDA8B8DF
:1021B000E991A8B80ACDB8B8E991A8B806CDA8B8F1
:1021C000E991B8B802CDB8B8E991B8B8FECCA8B8D2
:1021D000E991A8B801CDB8B8E991A8B8FDCCA8B8E4
:1021E000E991B8B8F9CCB8B8E991B8B8F5CCA8B8C5
:1021F000E991A8B8F8CCB8B8E991A8B8F4CCA8B8D7
:10220000E991B8B8F0CCB8B8E991B8B8ECCCA8B8B6
:10221000E991A8B8EFCCB8B8E991A8B8EBCCA8B8C8
:10222000E991B8B8E7CCB8B8E991B8B8E3CCA8B8A8
:10223000E991A8B8E6CCB8B8E991A8B8E2CCA8B8BA
:10224000E991B8B8DECCB8B8E991B8B8DACCA8B89A
:10225000E991A8B8DDCCB8B8E991A8B8D9CCA8B8AC
:10226000E991B8B8D5CCB8B8E991B8B8D1CCA8B88C
:10227000E991A8B8D4CCB8B8E991A8B8D0CCA8B89E
:10228000E991B8B8CCCCB8B8E991B8B8C8CCA8B87E
:10229000E991A8B8CBCCB8B8E991A8B8C7CCA8B890
:1022A000E991B8B8C3CCB8B8E991B8B8BFCCA8B870
:1022B000E991A8B8C2CCB8B8E991A8B8BECCA8B882
:1022C000E991B8B8BACCB8B8E991B8B8B6CCA8B862
:1022D000E991A8B8B9CCB8B8E991A8B8B5CCA8B874
:1022E000E991B8B8B1CCB8B8E991B8B8ADCCA8B854
:1022F000E991A8B8B0CCB8B8E991A8B8ACCCA8B866
:10230000E991B8B8A8CCB8B8E991B8B8A4CCA8B845
:10231000E991A8B8A7CCB8B8E991A8B8A3CCA8B857
:10232000E991B8B89FCCB8B8E991B8B89BCCA8B837
:10233000E991A8B89ECCB8B8E991A8B89ACCA8B849
:10234000E991B8B896CCB8B8E991B8B892CCA8B829
:10235000E991A8B895CCB8B8E991A8B891CCA8B83B
:10236000E991B8B88DCCB8B8E991B8B889CCA8B81B
:10237000E991A8B88CCCB8B8E991A8B888CCA8B82D
:10238000E991B8B884CCB8B8E991B8B880CCA8B80D
:10239000E991A8B883CCB8B8E991A8B87FCCA8B81F
:1023A000E991B8B87BCCB8B8E991B8B877CCA8B8FF
:1023B000E991A8B87ACCB8B8E991A8B876CCA8B811
:1023C000E991B8B872CCB8B8E991B8B86ECCA8B8F1
:1023D000E991A8B871CCB8B8E991A8B86DCCA8B803
:1023E000E991B8B869CCB8B8E991B8B865CCA8B8E3
:1023F000E991A8B868CCB8B8E991A8B864CCA8B8F5
:10240000E991B8B860CCB8B8E991B8B85CCCA8B8D4
:10241000E991A8B85FCCB8B8E991A8B85BCCA8B8E6
:10242000E991B8B857CCB8B8E991B8B853CCA8B8C6
:10243000E991A8B856CCB8B8E991A8B852CCA8B8D8
:10244000E991B8B84ECCB8B8E991B8B84ACCA8B8B8
:10245000E991A8B84DCCB8B8E991A8B849CCA8B8CA
:10246000E991B8B845CCB8B8E991B8B841CCA8B8AA
:10247000E991A8B844CCB8B8E991A8B840CCA8B8BC
:10248000E991B8B83CCCB8B8E991B8B838CCA8B89C
:10249000E991A8B83BCCB8B8E991A8B837CCA8B8AE
:1024A000E991B8B833CCB8B8E991B8B82FCCA8B88E
:1024B000E991A8B832CCB8B8E991A8B82ECCA8B8A0
:1024C000E991B8B82ACCB8B8E991B8B826CCA8B880
:1024D000E991A8B829CCB8B8E991A8B825CCA8B892
:1024E000E991B8B821CCB8B8E991B8B81DCCA8B872
:1024F000E991A8B820CCB8B8E991A8B81CCCA8B884
:10250000E991B8B818CCB8B8E991B8B814CCA8B863
:10251000E991A8B817CCB8B8E991A8B813CCA8B875
:10252000E991B8B80FCCB8B8E991B8B80BCCA8B855
:10253000E991A8B80ECCB8B8E991A8B80ACCA8B867
:10254000E991B8B806CCB8B8E991B8B802CCA8B847
:10255000E991A8B805CCB8B8E991A8B801CCA8B859
:10256000E991B8B8FDCBB8B8E991B8B8F9CBE5E0D6
:10257000EA95F1F7709172013770730FB42CA52CA6
:10258000B0E0A8E264E0E991F72F0490069EF00124
:10259000E954F14F0994EABDE0918400E2FD04C0E2
:1025A000E1FD02C0000000C0E0FF00C0F09BE4912C
:1025B000289AEAB5F4991895F09B09C0F39B11C0CD
:1025C000E0E7EEBBE3E0E0938B00E7E006C0E1E785
:1025D000EEBBE0E0E0938B00E7E4E0938A00EAB52D
:1025E0001895E2EFEEBBEAB51895EABDE0918400DC
:1025F000E2FD04C0E1FD02C0000000C0E0FF00C039
:10260000F29999C0EFB7EBBDFF9328980F921F92F4
:10261000F6D1B49AF19B7EC0E091C401EA95E093B3
:10262000C401F9F0F091C601EF1B41F080F51F9055
:102630000F90FF91EBB5EFBFEAB51895F2E2FA956E
:10264000F1F700C0E2E0FF2701900F92EE31E1F7D1
:102650000E944E07EEE1FF27EA950F900082E1F716
:1026600011C0EDEFE093C401E9EFEEBBE091C801CA
:10267000E195E450E093C601E091C901E093C70100
:102680001F900F90FF91EBB5EFBFEAB51895E131C0
:10269000A0F0129A09F412981F900F90FF91EBB5D9
:1026A000EFBFEAB5F79B1895E7E0E0938900EBE10F
:1026B000E0938800F798EAB5189513980090CC013C
:1026C0001090CD0100998894179407940092CC0142
:1026D0001092CD01E13021F40092CA011092CB0199
:1026E0000090D0011090D101019B08941794079499
:1026F0000092D0011092D101E13021F40092CE017C
:102700001092CF011F900F90FF91EBB5EFBFEAB58C
:10271000139A1895F29A1F900F90FF91EBB5EFBFA7
:10272000EAB5F79B1895E3E0E0938900EDE8E093C4
:102730008800EAB51895F69906C0EAB52898F59983
:1027400007C0F49818952898EAB5F698F298189565
:10275000F598F29818952898E2E000C00E94FF14BE
:10276000E091C401EA95E093C4010895E2EDF1E03F
:10277000E0931203F0931303E0931403F093150313
:1027800082E193E070E87193E813FDCFF913FBCF7A
:102790000895A0911203B091130370911203A7132F
:1027A000F8CF2F923F924F925F926F927F928F92CB
:1027B0009F92AF92BF92CF92DF92EF92FF920F93D0
:1027C0001F93CF93DF93C0911403D0911503E7E1DA
:1027D000F3E0E38044805580F184828493844785CC
:1027E000C088D18830E0315008F058C031E2E7E1CC
:1027F000F3E053896289848DA180B2802081A1D0C9
:10280000748FA182B28255896489758DB9D0758F14
:1028100020836789708D828D938D0688118CBCD042
:10282000E7E1F3E0678B828F1501022F578D668DEC
:1028300080A5A780B084268184D070A7A782B086A7
:1028400051A160A171A59CD071A7268363A174A139
:1028500086A197A102A015A09FD0E7E1F3E063A3B2
:1028600086A33501122F53A562A584A9A584B68439
:10287000248567D074ABA586B68655A564A575A9D1
:102880007FD075AB248767A570A982A993A906A4F8
:1028900011A882D0E7E1F3E067A782ABE20C431C0A
:1028A000F20112F0E068F395649160030008812D55
:1028B000902DF60C871CF40112F0E068F3956491FA
:1028C00061030008810D901D4A0DCB1CF60112F02A
:1028D000E068F395649162030008810D901D8058B3
:1028E0009F4F903019F080E00AF08A95899383E039
:1028F000C231D80710F0C2EDD1E0CA1374CFDB1398
:1029000072CFE7E1F3E0E3824482F1868286478773
:10291000C08AC0931403D09315031124DF91CF9183
:102920001F910F91FF90EF90DF90CF90BF90AF90ED
:102930009F908F907F906F905F904F903F902F90DF
:102940000895869F912D70E0859F900D711D880BD5
:102950008170A69E900D711D08F48395A59E700D43
:10296000811D990B9170B69E700D811D08F4939591
:10297000B59E800D911D770F881F991F5C010895EA
:10298000760F251F57FD04C030F42FEF7FEF089519
:1029900010F020E070E00895FB01600DE7FFF39573
:1029A000E0687491FC01810DE7FFF395E068949174
:1029B00075957595759575957058A79E512DB79E0F
:1029C000050E08F41394000C111C50019F5711F0D0
:1029D000299F212D0895E0911203F0911303019195
:1029E0000093B30003E0E231F00702ED11E008F0DC
:1029F000F801E0931203F0931303000008950F937E
:102A00001F932F93EF93E0911203F0911303019121
:102A10000093B30003E0E231F00702ED11E008F0AB
:102A2000F801E0931203F0931303F7E0FA95F1F73E
:102A300000C0EF912F911F910F91F099289AF09B70
:102A400001C00895F5E1FA95F1F7F199289AF19B03
:102A500000C008950052ADFF481A226B750E0A148B
:102A60001D2E77C707C00AC00DC010C013C016C006
:102A700019C01CC0F5E418B80C94D94BFCE418B884
:102A80000C94D94BF2E518B80C94D94BF8E518B86A
:102A90000C94D94BFFE518B80C94D94BF5E618B84F
:102AA0000C94D94BFCE618B80C94D94BF2E718B843
:102AB0000C94D94BFAE2E6ED90E0E80FF91FE80F2D
:102AC000F91F859195910895FBE2E2E390E0E80F0C
:102AD000F91F85910895E0004001A001A801B80107
:102AE000C801E001F8011802380260028802B80249
:102AF000E80220033C03580374039003CC0308044A
:102B000044048004BC04F80434059805FC05600600
:102B1000C40628078C07F0071408380858088408EA
:102B2000C00800092409D8098C0A400BF40BA80C32
:102B30005C0D1818020404060608080A0A0C0C0E9C
:102B4000070707070F0F0F0F0F0F0F191919191983
:102B500019190909080B0F10092D2D2D2D2D2D2DBB
:102B60009BE284EB089588E2089588E80895FBE2EB
:102B7000E4EB9AE0699FE00DF11D91E0869508F481
:102B800094E0869508F49295E80F80E0F81F049091
:102B9000099E000C881F000C881F11240895FBE279
:102BA000E4EB9AE0699FE00DF11D1124E80FF11D9F
:102BB00084910895000000000000000001AA0000B8
:102BC0000000000000006A90000000000000000209
:102BD000A400000000000000000A40000000000007
:102BE00000000028141500000000000000A0414073
:102BF0000000000000000190040000000000000040
:102C0000028104000000000000000A04442F0000BC
:102C100000000000191102FF000000000000280061
:102C20000FFF00000000000024443FFF00000000F0
:102C300000006004FFE0000000000000A103F900B4
:102C4000000000000000900BC0F400000000000035
:102C5000802F00B0000000000001803C30B0000078
:102C60000000000280F4F47000000000000242E066
:102C7000B4200000000000020380B000000000004B
:102C800000020B6470000000000000020E742000BF
:102C90000000000000022DB400140000000000023B
:102CA00039E0005000000000000236E00040000063
:102CB00000000001B3E00140000000000001F7D077
:102CC0000100000000000002E7D005000000000045
:102CD0000006CBD00500000000000006CAD00400AA
:102CE00000000000001B86D0140000000000002B34
:102CF00006D014000000000000AB22E01400000029
:102D00000000028E72E05410000000000A4DF1F045
:102D1000501000000000181CF0B0505000000000DF
:102D2000242CB0B05040000000006038B06050402B
:102D300000000000903570204140000000008477C2
:102D4000301041400000000094B3600141000000D9
:102D50000000A0E3801141000000000161D2C0101A
:102D600045000000000212C4C01044000000000230
:102D700003888010040000000006034B00100400CC
:102D8000000000090B0B00141400000000080E1ACC
:102D900000141400000000180D280014100000009A
:102DA00000241C2400141000000000602C240004E7
:102DB0001000000001603860000450000000059021
:102DC00034600004500000001480B0A000045000E3
:102DD00000005240E0900004400000014200D18019
:102DE0000004400000010902C28000044000000508
:102DF00018034680000440000014200B09900004D2
:102E000040000010800C20A00014400000528038C8
:102E1000806400144000004200F10028001400000B
:102E2000014A1BC0002800140000010BFE0000191D
:102E300000100000050550180009005000000402B1
:102E40004002000A0040000014018401800A004092
:102E50000000100192009006004000001141A18086
:102E600060064040000054116090240241000000C0
:102E7000500560601802410000004005242418023B
:102E800081000000400528180902840000000001AC
:102E9000180909019400000000060D0A06018000CF
:102EA000000000150E0606008000000000120B0254
:102EB0004200800000000052474282418000000032
:102EC00000424381824180000000014282C1C382EE
:102ED00040000000010181C0C382400000000114D5
:102EE00080D0C28200000000014180E0D2C1000019
:102EF0000000050080B091C1000000000400907443
:102F0000A1D1000000000400903860D5000000004E
:102F10000001902C70E4000000000001601D30E012
:102F2000000000000005200E34F000000000000446
:102F3000640B24B1000000000005180768B04000D1
:102F400000000004180398704000000000100902FF
:102F5000DC705000000000100601DC3010000000A2
:102F600000000240ED301000000000000140BE30C3
:102F700014000000000000407E300400000000004B
:102F800000502F2204100000000000141F630420D2
:102F90000000000000040F57006000000000000562
:102FA0000B9B20B0000000000001478F30B00000F4
:102FB0000000000042CB71F000040000000052D37A
:102FC000B2E000150000000015E1B2E14019000078
:102FD000000004B0F6D050590000000001B4F6D053
:102FE000046A0000000000787AD0006E0000000043
:102FF000006D0BD0016E00000000001E1BD001BE52
:1030000000000000001B1BE005B900000000000BE1
:1030100097E056F9000000000007C7D55BE5000007
:1030200000000002D156AFE400000000000185ABB3
:10303000EF940000000000011ABF9E500000000045
:1030400000012BFE59400000000000006FE97100F4
:10305000000000000000BF94B0000000000000016C
:10306000BE40F020000000000002F920F4700000D3
:1030700000000002F8B834B0000000000007E42EA1
:1030800000B000000000000B900F80F40000000072
:10309000000B9107F42400000000001E4501FF9082
:1030A00000000000001E01403FFF00000000002D56
:1030B00001810BFF000000000028009000BF00000D
:1030C0000000003000240100000000000020001972
:1030D0000100000000000010000690000000000049
:1030E00000200001A90000000000003000001AA527
:1030F0000000000000740000006A000000000010E2
:1031000000000000DC01862F82958F70809F50E0C8
:10311000400D511D1124440F551F440F551FA40F7E
:10312000B51F43E023706F70669520F0440F440F85
:10313000220F220F669510F042952295A60FB11D21
:103140006C9140956423622B6C930895DC01660FAB
:10315000660F649F800D911D11241D921D921D927A
:103160001D92A813FACFB913F8CF08951F930F93A8
:10317000FF92EF92DF92CF92BF92AF929F928F9287
:103180007F92DC01FB016801FF24EE0CFF1CEE0CBA
:10319000FF1C90E0330F991F330F991FA30FB91F26
:1031A000205118F0AE0DBF1DFBCF205F30E0245042
:1031B00018F011963395FBCF2C5F9FEF309520953B
:1031C00033702370339523954901515008F439C069
:1031D000642F71E08FEF182D092D5D01615060F1B2
:1031E0007A9511F474E0759030E0770C331F770C0A
:1031F000331F23E0133018F4123021F007C032954A
:10320000229521F0330F330F220F220F0C90102C38
:103210001222311518F020950222032A0C928C0DEF
:10322000E8F61A95D9F614E011960A95B9F604E075
:103230001497AE0DBF1DD2CFD5019D0D08F4149685
:10324000C4CF11247F908F909F90AF90BF90CF906C
:10325000DF90EF90FF900F911F910895DC01603097
:10326000E9F08D919D91792F7C707295572F792F70
:103270007073572B907C9295592B782F7370572B26
:10328000782F7C707295472F782F7073472B807C36
:103290008295482B5D934D936A9519F70895809117
:1032A0004D0390914E03880F991F65E27FE7861FBB
:1032B000971F6BED862780934D0390934E030895DF
:1032C000E432EA32EF32F632FD32033309330F33A0
:1032D00015331C3323332D33373341334F335733B7
:1032E0006B337E33476F6C643A00506F703A005313
:1032F000776170733A004D6F6E74683A0020656EA6
:103300006420000E454E440F0020706F7020000EA8
:10331000504F500F00207377617020000E535741BB
:10332000500F0020616E797377617020000E414E5E
:1033300059535741500F0047616D65204F766572B4
:1033400000537572766976656420666F722000207E
:103350006D6F6E74687300696E20746865204472C6
:1033600061676F6E2773204D617700612067616D23
:1033700065206279204A7562617469616E00666FCA
:10338000722074686520557A65626F7820636F6E6D
:10339000736F6C650000DC0180E090E0623180F4C6
:1033A00070E0660F771FE0ECF2E3E60FF71F659120
:1033B0007591FB0102C06D93019665916030D9F75C
:1033C0000895DC01CA01019718F06D930197E8F7A1
:1033D00008956FEF6F5F80519742E0F7805F984DDF
:1033E0007FEE705F885E9340E0F788519C4F7F5F6F
:1033F00084569040E0F78C5990EF905F8A50E8F740
:10340000865F980F862F692F90E00895001C34087E
:103410003C202C18FF00142C24101C2030041834DD
:10342000081C0C2814FF001C14042D200C1C08245C
:1034300010290825200CFF000829241120081D242C
:1034400019311418253404FF000D24311E10350CD9
:103450001D3A2D210C190928FF0104363919423172
:10346000093E2C4E211025420CFF0104363A311939
:10347000264A250D521E5415FF0109423673551D6B
:103480002E46363915FF0209352E738F5D053A4AEF
:103490002911FF022A778F975E3A4A26FF00080C0F
:1034A00034051015340C14263412203734182848EB
:1034B000342036593424426A343058793436788688
:1034C0003448FF9334320FF8FAFF640EF8FAFF82A3
:1034D0000FF8FAFF9B10F8FAFFCD11F8FAFFFF1072
:1034E000F8FAFF1E12F8F8FF3C18F8F8FF5F17F81B
:1034F000F8FF8716F8F8FFAF15F8F8FFD714F8F8BB
:10350000FFFF13F8F8FF1E19F1F49900F4FF3C1FB8
:10351000F1F49F00F4FF5F1EF1F49E00F4FF871D9D
:10352000F1F49D00F4FFAF1CF1F49C00F4FFD71BF5
:10353000F1F49B00F4FFFF1AF1F49A00F4FF1E2748
:10354000F1E8A700E820E1FEA010FEFF3C2DF1E825
:10355000AD00E826E1FBA610FBFF5F2CF1E8AC0014
:10356000E825E1F5A510F5FF872BF1E8AB00E8248D
:10357000E1F8A410F8FFAF2AF1E8AA00E823E1FE81
:10358000A310FEFFD729F1E8A900E822E100A2106C
:1035900000FFFF28F1E8A800E821E100A11000FFEA
:1035A000B75D6780B5DA58B47C7575BD7D76BE4170
:1035B000ADBF40ADFF40B5FF9F9CAF8F94A7491AA8
:1035C000894819894019884011881C766715775FEA
:1035D000703009F06FEFEDE9F4E370E09591691751
:1035E000959120F0961710F0815028F0329673953F
:1035F0007A30A0F3F0CF872F0895EDE9F4E3880F38
:10360000880F8E4F90E0E80FF91F85919591FC018E
:103610000895F3DF80E095919F3F29F0937089171B
:10362000D0F7892FF8CF0895E8DF8FEF8395959134
:103630009F3FE1F70895E1DF80E095919F3F49F0DA
:10364000792F96959695890F6150B8F7972F9370BB
:1036500008958FEF0895813060F041F0833018F0C5
:10366000EEE3F5E308C0E6E0F5E305C0E3EEF4E3DE
:1036700002C0E5ECF4E37591761728F475917F3F6D
:10368000D1F33296FBCFCF010895FC01762F9591AF
:103690009F3F39F0859165917150C8F767FF739529
:1036A0000895892FBC0108958F3008F08FE090E0D5
:1036B000E0EAF5E3E80FF91F880FE80FF91F85919D
:1036C000759165910895020729652FF6E4020809AE
:1036D000642FF6E4020883632FF6E3D3F042090275
:1036E0000264682FF63FE0E43FF8D4F0420B120288
:1036F000AE1C0100E552256A2FE03900E22FF63FAB
:10370000F0E2D4F00101984225531F30506420F0BC
:10371000E12FF8E22FE43B004213E43FF0E6DAF059
:10372000420B50050100663030642050E22FF0E477
:103730003FD0E6DAF0420750061100886101005BD5
:103740004205530B300C2030E22FF8DAF01201CA98
:103750009612022196120241960201E5672FFDD1D1
:10376000F053051002D7A642070302216020303F24
:10377000F8E62FFFDFF0010110642F80D3F0B0775F
:103780005A6F3E2C1726008B8F9387A19B0B3C0B07
:103790002D0B0F0B780B3C0B2D0B0F0B3C0A2D093F
:1037A0000F0A0509280B0F0B2D0C0F0B000080E0F2
:1037B0000E94F81C81E00E94F81C82E00E94F81C24
:1037C000F3C08091F50D815090F08093F50D79F460
:1037D000E091F70DF0E0E357F84C65918591ED58D5
:1037E000E093F70D8093F50D8091F60D8FD008953D
:1037F000E8DFDF92EF92FF920F931F93CF93DF9357
:10380000CFEEDDE0098107FF75C005FF0FC08C2FEB
:103810008F5E86950E940C1D803009F06BC00F7D75
:1038200009838C2F8F5E86950E94F81C102F1F70C5
:1038300019F00A9509835EC0E881F0E0EA53F94C7B
:1038400015918C2F8F5E8695912F907F612F6F70D1
:10385000903E09F128F5903DE9F0903521F168F5A9
:10386000903391F128F5903109F0B8F5D82E7F0109
:103870000E940F1D8D2D0E94F41C8D2DF701759156
:1038800065917F0140E00E94EF1C14FF31C0F701F9
:10389000E491D3CF0F7B062B0983E65CE8832AC033
:1038A0000F77098327C045917F010E941D1D20C00D
:1038B00045917F010E94241D1BC0462F4295642B19
:1038C0007F010E94091D14C070E863FD70E7762B2C
:1038D00065917F010E94151D0BC06295459142952F
:1038E000742F7F70762B407F642F7F010E94191DFB
:1038F000F701A6CF2296C53F09F084CFDF91CF9183
:103900001F910F91FF90EF90DF900895EFEEFDE093
:1039100021813381458180FF206181FF306182FFF9
:103920004061522F507D91F0532F507D71F0542FF4
:10393000507D51F0522F507949F0532F507929F092
:10394000542F507909F00895329632969F01EEE790
:10395000F7E31124E60FF11D6491F90180EE608315
:1039600081838E2F8F5E869578EF60E00C94191D11
:10397000E62FF0E0E355F84C64916093F70D8093E7
:10398000F60D61E06093F50D089580E07EEF60E054
:103990000E94191D81E07EEF60E00E94191D82E007
:1039A0007EEF60E00E94191DEFEEFDE01124119200
:1039B000E53FE9F70895833008F080E096E0899FBD
:1039C000F001E95EFC4F11240895833008F080E097
:1039D0009CE0899FF001E75DFC4F11240895EBDF27
:1039E0004083618372830895E6DF13821482089511
:1039F000ECDF1082128213821482178212861386E1
:103A0000158280E8818380E4808786E886838187C9
:103A10000895D1DF60830895CEDF80810895CBDFE4
:103A20006370660F6E5765830895CFDF608371837F
:103A30000895CBDF628373830895C7DF4483637087
:103A4000660F6E5766830895C0DF47836370660F05
:103A50006E57618708958091C50181700895209106
:103A6000C5012E7F2093C5010895882349F48091D4
:103A7000CA019091CB018F3009F008950C94451D37
:103A80008091CE019091CF01F6CFE0E6F0E0808109
:103A900083FD089588E198E0F8948083908378947A
:103AA000FFCFF999FECF92BD81BD60BDF894FA9A1F
:103AB000F99A78940895F999FECF92BD81BDF89452
:103AC000F89A80B5789408956093C9018093C801ED
:103AD0000895CF93DF93C0E0D0E0FE01E257FF4F9F
:103AE0006491CE010E94511D2196C032D105A9F7E3
:103AF000C0E2D0E06FEFCE010E94511D6FEFCE010A
:103B000001960E94511DA096C11588E0D80791F733
:103B1000DF91CF910895CF9380E090E00E945B1DEC
:103B2000C82F81E090E00E945B1D282F30E0322FEB
:103B300022272C0F311D81E02A35354509F080E020
:103B4000CF91089580E090E0FC01EC5AF54DE491AE
:103B5000DC01A05EBE4FEC93019680319105A1F788
:103B600080EF809370018FEF8093C4101092CD107E
:103B70001092C21091E09093C3101092CB109093CA
:103B8000CC108093C6101092C5108093CF10109265
:103B9000CE108093C7108093D0108093C81080936C
:103BA000D11080E092E8909372011092D31010929D
:103BB000D210109271011092D4101092D510109260
:103BC000D810E0E0F1E0A0E1B1E085ED90E11192E4
:103BD00011928D939D9321E0E031F207C1F7089592
:103BE00008950F931F93CF93DF938C01C0E0D0E033
:103BF000C017D10754F40E942B1D8823E1F30E94C3
:103C00002F1D0E94C9132196F3CFDF91CF911F91F1
:103C10000F910895982F92959F709F5F83708130C8
:103C2000B9F0292F30E0813060F08230B1F440E407
:103C300051E0249FC001259F900D349F900D1124C9
:103C40000895C90133E0880F991F3A95E1F7089567
:103C500020E3929FC00111240895C901982F88275D
:103C6000990F990F990F08959091020E8917B0F549
:103C70008F5F2091000E3091010E981761F14AE09C
:103C8000849FF0011124D901AE0FBF1F3A97E20FB4
:103C9000F31F4D915C9111975183408312964D9182
:103CA0005C9113975383428314964D915C911597C1
:103CB0005583448316964C911697468317964C91DC
:103CC0001797478318964C911897408719964C91EF
:103CD00041878F5FD2CF91509093020E0895CF937A
:103CE000DF93D82FC62F0E944F19982F9F719831BC
:103CF00010F0985E07C0903110F0905F03C09830CC
:103D000008F0985F84E0890FCD1718F42D2FDC2F71
:103D1000C22FD295DF70282F22952F702D1710F00B
:103D200084E1890FC295CF70982F92959F709C1750
:103D300008F0805FDF91CF91089580EA90E00895C8
:103D40009093010E8093000E1092020E1092030EBB
:103D500008956F927F928F929F92AF92BF92CF926F
:103D6000DF92EF92FF920F931F93CF93DF936B013C
:103D70007C01642E9091020EE091000EF091010EF4
:103D800080E0812C912C5401891749F020813181E8
:103D9000820E931EA11CB11C8F5F3A96F5CF712C39
:103DA0008091020E781608F041C08AE0789E80016A
:103DB0001124E091000EF091010EE00FF11FD78168
:103DC000CD2FC370C61580F1D295DF700E944F19B8
:103DD00087708D0F803108F08FE0D81728F590E1BB
:103DE000899FC00D11248C2F0E940A1EE091000EA5
:103DF000F091010EE00FF11F20813181B501A40186
:103E0000421B530B61097109480F591F611D711D38
:103E1000C416D506E606F70638F0918380839383AF
:103E20008283C7834A015B017394BACFDF91CF913C
:103E30001F910F91FF90EF90DF90CF90BF90AF90C8
:103E40009F908F907F906F9008952F923F924F9206
:103E50005F926F927F928F929F92AF92BF92CF921A
:103E6000DF92EF92FF920F931F93CF93DF93CDB723
:103E7000DEB763970FB6F894DEBF0FBECDBF9A834F
:103E800089830E944F1969817A818F710E94E81A93
:103E90008D8329813A812831310568F48AE0829F37
:103EA000B001839F700D112476956795769567957F
:103EB0006D5F7F4F0EC08BE049815A81849FB001B6
:103EC000859F700D1124769567957695679563505B
:103ED000710980E090E09B01AC010E947F394B01A9
:103EE0005C018D810E94141B898768E388E20E942F
:103EF0006F1E482E68E20E946F1E8983512C212C70
:103F0000312CE12CF12C712CB9855B1609F43FC0E2
:103F1000652D8D810E941B1B9B878A879370692E5C
:103F2000892F0E940A1E8C016701C80ED91EC60186
:103F3000A0E0B0E088169906AA06BB0630F1642D11
:103F400089810E946F1EE091000EF091010E5AE0EF
:103F5000759EE00DF11D11241183008313830283EC
:103F6000AA85BB85BF6FB583A483868367821086CD
:103F70001186261418F0261004C001C0312C339489
:103F8000262C73947601498089835394BDCF709217
:103F9000020E772009F4F1C040E0C501B4010E948F
:103FA000A91E40E0C501B4010E94A91E9091020E15
:103FB000292F220F2B8B2401350122E07694679460
:103FC000579447942A95D1F730E34316510461047E
:103FD000710428F480E3482E512C612C712CE0915F
:103FE000000EF091010E80E0C12CD12C76019817C3
:103FF00049F020813181C20ED31EE11CF11C8F5F7C
:104000003A96F5CF1A8AD501C40184199509A609F3
:10401000B7098D839E83AF83B88784199509A60954
:10402000B7098A879B87AC87BD8784199509A6093C
:10403000B7098E879F87A88BB98B3B89332309F4F7
:1040400063C02D813E814F815885C216D306E40698
:10405000F50610F013E001C01FE08A859B85AC8552
:10406000BD85C816D906EA06FB0608F41FE32E85AF
:104070003F8548895989C216D306E406F50608F437
:1040800043C00E944F19212F30E082239323892BB4
:1040900059F5E091000EF091010E4A893AE0439FF4
:1040A000E00DF11D1124808191819C0140E050E0E0
:1040B00029833A834B835C832415350546055705D0
:1040C00098F487818370281204C031E0331560F4BE
:1040D0003A948A890E94341E89819A81AB81BC817D
:1040E000C81AD90AEA0AFB0A9A899B5F9A8B8091BF
:1040F000020EBA898B1720F4AA89A81BAA8BF9CFC4
:104100002B8921502B8B99CF222039F0422DC501CC
:10411000B4010E94A91E2A94F7CF40E0C501B40162
:104120000E94A91E40E0C501B4010E94A91EE091B1
:10413000000EF091010E8091020EDF014AE0849F93
:10414000A00DB11D11241A9714968D919C9115976D
:10415000803E5FEF950788F420EE3FEF281B390B78
:1041600080E09985891749F044815581420F531F9A
:10417000558344838F5F3A96F4CF63960FB6F894D5
:10418000DEBF0FBECDBFDF91CF911F910F91FF908A
:10419000EF90DF90CF90BF90AF909F908F907F90E7
:1041A0006F905F904F903F902F9008950F931F93C3
:1041B000CF93DF938091020E8823C1F1C091000E4E
:1041C000D091010E00E09091020E8091030E09172C
:1041D00010F5811105C08C819D8101969D838C8392
:1041E000188511110BC00E944F198F739927892BC5
:1041F00031F40E944F19182F177001C0195F1887EA
:104200008985882381F0815F898781110CC0802F87
:104210000E94341ED8CF811102C081E001C08150BC
:104220008093030E03C02A960F5FCDCFDF91CF910D
:104230001F910F91089581E09091020E911180E0FD
:104240000895CF938091020E8823B9F08150E091B8
:10425000000EF091010E9AE0899FE00DF11D1124EE
:1042600024813581215E31092F313F4730F4C781E8
:10427000C3700E94341E8C2F01C08FEFCF91089520
:104280008091020E0895DB019091020E8917A0F42F
:10429000E091000EF091010E9AE0899FE00DF11D72
:1042A0001124648175814681878120859185382F0D
:1042B00032953F70837007C09FEF20E030E080E0D0
:1042C00040E060E070E011967C936E9312964C9300
:1042D000129713968C93139714963C9314971596F4
:1042E0002C93159716969C930895DC019091020EDD
:1042F000E091000EF091010E80E0992391F021856C
:1043000021110CC024813581203C310538F43681DF
:104310002C9311963C93119712968F5F91503A9679
:10432000ECCF08950F931F93CF93DF93E091000E8E
:10433000F091010E0091020E10E070E0DB01189682
:1043400090E0EC0128961017A1F124813581283CDA
:10435000310560F5A217B30748F1285F3F4F2617D4
:10436000370720F1268130E0C217D307F8F0285F25
:104370003F4F28173907D0F020813181421753076A
:1043800028F4241B350B318320830EC0232B71F0BE
:104390001182108281E081870E944F19817062E052
:1043A000680F87E00E94861C81E004C03A961F5F78
:1043B000CACF80E0DF91CF911F910F9108956F9246
:1043C0007F928F929F92AF92BF92CF92DF92EF92A5
:1043D000FF920F931F93CF93DF934A01C091000E7A
:1043E000D091010E712C062F10E0680190E2C90EE9
:1043F000D11CE82EF12C570188E1A80EB11C6624CF
:1044000063948091020E781678F58C819D81883CAA
:10441000910538F5C816D90620F1809680179107C6
:1044200000F18E8190E0A816B906D8F048968E1556
:104430009F05B8F0888199818816990628F4881913
:104440009909998388830DC0892B59F019821882A4
:1044500069860E944F19817062E0680F87E00E94B0
:10446000861C2A967394CDCFDF91CF911F910F9127
:10447000FF90EF90DF90CF90BF90AF909F908F9084
:104480007F906F90089585E00895909350038093F6
:104490004F03609351030C944D22109252031092DB
:1044A00053030895BF92CF92DF92EF92FF920F9342
:1044B0001F93CF93DF93B090530381E0B826B0925F
:1044C0005303C12C80915203C81608F0F6C025E0B2
:1044D000C29E80011124E0904F03F0905003E00E43
:1044E000F11EF70140815181D280C381D4818D2D8D
:1044F000807C803409F447C0803809F45EC08111A3
:104500009EC06D2F8C2F0E9492218111B9C08D2DDC
:1045100082958F7009F4B4C08B199D2D9F7CF0E1BA
:104520008F9F900D1124F7019283ED2DEF708E2F48
:1045300090E08F30910520F5FC01E85CFF4F0C9472
:10454000AF39CF5F1EC0CE5F19C0CD5F14C0CC5F46
:1045500030C0CD5F0BC0CE5F06C0CF5F01C0C15081
:10456000DC5F27C0C250DD5F24C0C350DE5F21C0C6
:10457000C4501FC0C350D2501CC0C250D35019C029
:10458000C150D45016C06D2F8C2F0E9492218111E2
:1045900077C08D2D82958370813039F020F0C45022
:1045A000823021F005C0CC5F03C0CC5FDA5F01C070
:1045B000D650D83C08F064C05AC08D2D8F73B9F521
:1045C0006D2F8C2F0E94DF218091520390E0449642
:1045D0002091510330E08217930708F051C0F12C6D
:1045E0000E944F199C0127703327232BD9F09091FB
:1045F0005203E0914F03F091500325E0929FE00DAC
:10460000F11D11249F5F90935203C383D4831182C1
:10461000108282958770885F9F2D9295907F906C15
:10462000892B8283F39484E0F812DACF29C0815079
:104630008068F7018283DD2319F1D5501CC08D2DD0
:104640008F70F1F08FEF8D0DF70182838D2D8295A4
:104650008370813039F020F0C150823021F005C0E4
:10466000CF5F03C0CF5FDF5F06C0D15004C080E8DA
:104670008C0F803628F0F701C383D483C39422CFF4
:10468000E0914F03F0915003E00FF11F91E09C0D7A
:1046900080915203981768F44781308521856581A0
:1046A00076817183608342833383248335969F5F51
:1046B000F1CF81508093520305CFDF91CF911F91AD
:1046C0000F91FF90EF90DF90CF90BF9008954F92A1
:1046D0005F926F927F928F929F92AF92BF92CF9292
:1046E000DF92EF92FF920F931F93CF93DF93CDB79B
:1046F000DEB7A0970FB6F894DEBF0FBECDBF7091A6
:10470000520390915103791708F0D1C069014A0111
:10471000A62EE82ECE0101960E947521882309F469
:10472000C9C00E2D0295007F28E0B22EB00E18E110
:10473000A19E102D11243CE0F32EF10E8114910462
:1047400009F03FC0782E770C98E1692E4A2D50E091
:104750004A012FEF821A920AEE2DF0E02F016FEF3F
:10476000461A560A772009F4A5C07A947A94272D20
:1047700030E081E090E08C0F9D1F820F931FDC01E1
:10478000EC908E2D662D0E948F3990E08816990648
:1047900048F301968417950728F362E070E06C0FE8
:1047A0007D1F260F371FD901AC908A2D82958F70FF
:1047B00090E048165906B0F201968E179F0790F2C6
:1047C0007CC021E08216910471F5282F220F9E2CC7
:1047D0009A184E2D4A0D88E1A82E222309F46AC0AA
:1047E0002250E22FF0E081E090E08C0F9D1F8E0FB1
:1047F0009F1FDC013C91832F6A2D0E948F3962E05C
:1048000070E06C0F7D1FE60FF71F5081952F92957A
:104810009F70692F681B961619F0890F4813DDCF1A
:10482000E916D9F297C092E08916910409F042C0C6
:10483000282F220F38E1EA2DF0E02223D9F122506F
:10484000422F50E0A1E0B0E0AC0FBD1FA40FB51F98
:104850008C91632F0E948F39682F70E06F5F7F4FBC
:104860006E177F0750F7A2E0B0E0AC0FBD1FA40F9A
:10487000B51F9C9192959F70E912DFCF90915203E2
:10488000E0914F03F0915003A5E09A9FE00DF11DD8
:1048900011249F5F90935203B382F482D182C0822D
:1048A0004A2D481B440F440F406842837CC082E07D
:1048B00090E07BC081E090E078C00E944F19BA146C
:1048C00018F42A2D2B1902C02B2D2A19FE1418F4C6
:1048D0009E2D9F1902C09F2D9E198770283050F47D
:1048E000EF1418F41D5F90E002C01B5E98E00C5FAF
:1048F000080F1BC09C3020F0EF1440F096E00BC076
:10490000943030F0EF1430F095E005C092E003C031
:1049100094E001C093E0BA1410F4025F04C00E5F8B
:1049200020E1291B922F185F180F80915203E0910C
:104930004F03F0915003B5E08B9FE00DF11D112462
:104940008F5F8093520303831483D182C08290636C
:10495000928329C0B51648F43F1518F41D5F80E016
:1049600002C01B5E81E0025F08C03F1518F41D5FA6
:1049700083E002C01B5E82E00E5F90915203E091E3
:104980004F03F091500375E0979FE00DF11D112446
:104990009F5F9093520303831483D182C0828295D8
:1049A000807F8064828380E090E0A0960FB6F894C8
:1049B000DEBF0FBECDBFDF91CF911F910F91FF9052
:1049C000EF90DF90CF90BF90AF909F908F907F90AF
:1049D0006F905F904F900895809152030895DB018E
:1049E00090915203891768F4E0914F03F0915003BE
:1049F00095E0899FE00DF11D11245381448182814E
:104A000003C080E040E050E0982F907C903449F063
:104A1000903C71F0911113C08295807F20E030E0CE
:104A200011C08073880F880F805E21E030E00AC0DB
:104A30008073880F880F805E23E030E003C022E09F
:104A400030E080E05C9311964C93119712968C9312
:104A5000129714963C932E93139708958EE790E047
:104A6000089590935503809354038C5A9F4F9093CD
:104A70005703809356030C943D25E0915403F09125
:104A80005503A0915603B0915703CF018C5A9F4F05
:104A9000119211921D92E817F907D1F708952F92FC
:104AA0003F924F925F926F927F928F929F92AF92BE
:104AB000BF92CF92DF92EF92FF920F931F93CF930B
:104AC000DF93CDB7DEB727970FB6F894DEBF0FBEE2
:104AD000CDBF809054039090550360905603709022
:104AE0005703412C73016401312C3FEF340D3C839B
:104AF00081E0840D8D83F7018081F1E0F30DFB836C
:104B0000882321F08150F7018083A4C0F601019031
:104B1000F081E02DFA83E983642D832D0E94CB324E
:104B2000082F823A09F445C090F4833871F148F4B3
:104B3000813839F1823809F08DC01CE22EE030E076
:104B4000B9C0843831F1813A09F4B1C083C0813CE5
:104B500011F148F4833A89F0843A09F07BC018E0F7
:104B60008CE190E01FC0833C01F1C8F0843C09F067
:104B700071C010E12CE330E09DC014E124E130E08D
:104B800099C018E6E8E0F0E017C010E184E190E099
:104B900009C018E00BC01FEF20E130E08BC010E629
:104BA00086E190E09F838E8309C018E2E0E2F0E0A6
:104BB00003C014E3EEE0F0E0FF83EE83642D8FEF9B
:104BC000830D0E94CB32A82E6C81832D0E94CB32A4
:104BD000282E642D8B810E94CB329A2DA21408F4CA
:104BE000922D903E08F490EEA92E981708F4A82E66
:104BF0006D81832D0E94CB329A2DA81608F4982F30
:104C0000923E09F091C0812F869586958695512E0A
:104C10005694182F150D2E813F81220F331F3F838D
:104C20002E83013808F44DC0053808F046C0A12C89
:104C3000B12C29813A818E819F81280F391FA501CE
:104C4000642D832D0E946723009709F442C00297C8
:104C500009F456C032E0C30ED11C8FEFE81AF80AEF
:104C60003B8096E0391247CFECE08E0E911CF6E0C7
:104C70006F0E711C439427E0421234CF27960FB673
:104C8000F894DEBF0FBECDBFDF91CF911F910F9182
:104C9000FF90EF90DF90CF90BF90AF909F908F905C
:104CA0007F906F905F904F903F902F90089510E805
:104CB00028E030E03F832E8381CF8FE5800F843062
:104CC00020F092E0A92EB12CB4CFAA24A394B12C49
:104CD000B0CF55245A94510EF7015082F60111823B
:104CE0001082F2E0AF16B10411F465E005C00E9435
:104CF0004F19817066E0680F83E00E94861CAACF7E
:104D000029813A8137FD0AC0612F70E08E819F8131
:104D10000E949B39260F371F3A83298329813A81C4
:104D2000F6013183208396CF933E88F4913E09F0BB
:104D300078CF812F86958695512E5694182F150D74
:104D40008E819F8196958795EE81FF810BC0933E62
:104D500071F416958E819F81880F991FEE81FF81D6
:104D6000F695E795E80FF91FFF83EE835ACF943E3F
:104D700009F057CF812F8695512E5694569456940C
:104D8000182F15198E819F81880F991F2E813F81C1
:104D9000280F391F3F832E83111143CF11E041CFDC
:104DA0001F93CF93DF93EC01162F0E944F19FE0142
:104DB000E10FF11D92E4948B982F9170905C90A775
:104DC00086958170805C84AFDF91CF911F910895AB
:104DD000FC01E60FF11D448B40A744AF0895DF921C
:104DE000EF92FF920F931F93CF93DF930E940E34A5
:104DF0008C010E944F198370833019F0C0E5C80FF1
:104E000001C0C4E5F8017496D4E18291893411F0AF
:104E1000D150D9F7F801F12C81918E3421F0F3941F
:104E200034E1F312F9CF8D2F90E021E0F80134E165
:104E3000239FE00DF11D1124E80FF11D3081387F13
:104E4000303409F49F5F8F5F8F1510F02F5F8D2F27
:104E5000243060F3923010F480E089C0943018F46C
:104E600027E0D22E02C09FE1D92E83E0E82E0E94D7
:104E70004F198D218F5F2D2F91E0422F50E0E4E1FB
:104E80009E9FB0011124DA01A60FB71FA00FB11F1A
:104E90003C91387F303411F4815041F02F5F2F1551
:104EA00060F39F5F943038F72D2FE7CFC23520F0A5
:104EB000C43520F0C635F0F0CC9358C0F801E40FAB
:104EC000F51F848930A524AD492F4D7F413049F429
:104ED000832F8F718251843040F1933061F592E0DD
:104EE0002AC02F712251243030F58F7182518430C5
:104EF000E0F020C05FEF520F5231B8F4CD010197BE
:104F0000FC018081382F3F7111969C91492F4F7180
:104F10004251443018F098719830F9F49EEE930F96
:104F2000943018F088718830B9F4EA94EE2009F4CE
:104F300093CF9DCF91E0892F90E0019644E1489F67
:104F40009001499F300D1124E20FF31F82E5808309
:104F5000749783E580830AC0252FFB01E20FF11DC2
:104F6000E00FF11F84E5808385E5818381E0DF9197
:104F7000CF911F910F91FF90EF90DF900895DF92F6
:104F8000EF92FF920F931F93CF93DF930E940E3403
:104F9000EC018C017C0184E1E80EF11C82E4D82E46
:104FA000F801D1928F010E944F19982F9170905C57
:104FB000F801938B8695982F9170905C97A38695B6
:104FC0008170805C83AF0E151F0551F77E01F7E0FD
:104FD000EF0EF11C17E082E4810FF70181937F014E
:104FE000612FCE010E94D0261F5F1D30A1F748E43B
:104FF00067E0CE010E94E8264FE46CE0CE010E94FB
:10500000E8261092590310925803DF91CF911F9117
:105010000F91FF90EF90DF900895EF92FF920F9322
:105020001F93CF93DF932091580330915903281792
:10503000390709F425C18C019093590380935803D3
:105040000E940E34EC017C0124E1E20EF11CAC0163
:10505000405B5F4FC70120E0FC0144963191307FF7
:10506000303509F42F5F8E179F07C1F78417950716
:1050700099F785E0289F900111242017310708F443
:1050800044C0065F1F4F2017310708F4F9C00E9483
:105090004F198F738F5FF70190E021E03081307FEF
:1050A000303511F4815049F031969F5F9431B0F35F
:1050B0002F5F243080F790E0F1CF84E1289F9001AA
:1050C0001124892F90E0F901E80FF91FDE01AE0FDE
:1050D000BF1F4C91433559F020F4423599F4749731
:1050E0000CC0443549F0453569F4319706C0F901E3
:1050F0007496E80FF91F01C03196EC0FFD1F8081F7
:10510000805E8083405E4C93BBC021E0A701E0E05D
:10511000DA018C914F5F5F4F982F907F903791F518
:10512000833769F028F4823751F5F0E074971DC099
:10513000843799F0853719F5F0E0319716C030E0E3
:105140002F5F3F4F94E1929FA001939F500D112438
:105150009A012E0F311DF9010DC0F0E0319634E1B6
:10516000239FE00DF11D112405C094E1299FE00D5E
:10517000F11D1124EC0FFD1F9081905290838052FD
:105180008C937EC07A01EF5FE43111F62F5F2430FB
:1051900009F0BCCF0E94EF26811172C00E940E342C
:1051A000EC01FC01DC0110E08D91893411F400E088
:1051B00008C01F5F1431C1F7FACF0F5F043109F443
:1051C0005CC081918E34C9F7143141F18CE4FE0149
:1051D000E10FF11D81838BE48083612FCE010E945A
:1051E000D0261123C9F0FF24FA94F10EFE01EF0D31
:1051F000F11D8AE480836F2DCE010E94D026FF200E
:1052000059F06EEF610FFE01E60FF11D89E4808316
:1052100048E4CE010E94E826043139F1FE01E00F96
:10522000F11DDF0111978BE48C938CE48083602F58
:10523000CE010E94D0260331C1F011E0100FFE0113
:10524000E10FF11D8DE48083612FCE010E94D026F5
:10525000133159F062E0600FFE01E60FF11D8EE49C
:1052600080834FE4CE010E94E826DF91CF911F9109
:105270000F91FF90EF900C94EF261431B1F3A6CF6D
:10528000DF91CF911F910F91FF90EF9008958AE0E9
:1052900090E090935B0380935A0385E080935C03D6
:1052A00010925E0310925D031092600310925F03F0
:1052B00010926103109262031092630310926403D0
:1052C00010926503109267031092660310926A03AE
:1052D00086E080936B0310926C0310926D03109222
:1052E0006E0310926F03109270031092690380E0B6
:1052F00090E00E94B5350E94932F0C94BF27CF9267
:10530000DF92EF92FF920F931F93CF938C01CB010B
:10531000C42F0E94E919CC23B1F0C15044E0C49FCE
:10532000900111246B017C0104C0F694E794D7949A
:10533000C7942A95D2F7A70196012F70205DF80136
:1053400021938F01E8CFCF911F910F91FF90EF90A4
:10535000DF90CF9008955F926F927F928F929F928D
:10536000AF92BF92CF92DF92EF92FF920F931F9373
:10537000CF93DF93CDB7DEB72B970FB6F894DEBF90
:105380000FBECDBF80915A0390915B03892B09F426
:105390005CC384E00E9433360E944534CE010996F6
:1053A0000E94CB2F0E9477332B8580915F039091D1
:1053B0006003820F911D9093600380935F0380913F
:1053C0005A0390915B030E940D288A85882321F05F
:1053D00068E087E00E94861C80915C03811186C092
:1053E00080917003882381F0898581116FC081E0ED
:1053F00090E00E94B53580915D0390915E030E941C
:10540000251F1092700362C00E941B21811137C0BA
:105410000E94D6200E944F250E9452220E94CA3428
:105420000E947D350E942121813039F060F0823068
:1054300031F0833031F482E107C082E005C086E0BC
:1054400003C080E001C081E0482F50E020915A0362
:1054500030915B034217530738F4241B350B30930C
:105460005B0320935A0304C010925B0310925A030B
:10547000882361F164E087E00E94861C27C080E0F9
:1054800090E00E94B53580915A0390915B0301969C
:1054900090935B0380935A036091640324E0260F8A
:1054A0006AE070E00E949B39620F60935C03109287
:1054B0006403109261031092650380915D039091E3
:1054C0005E03019690935E0380935D0380916F036A
:1054D000882319F0815080936F0307EB21E04FEB95
:1054E00061E080916F030E948B38A3C20E94CC3888
:1054F00090916F03981718F49F5F90936F038091BA
:105500006203882309F420C110926D031091630394
:1055100060915D0370915E036F5F7F4F80916603C2
:10552000909167030E949B391D82660F6B5F6E83AB
:10553000809165038D5F8F838AE0888780915F0308
:10554000909160038233910510F4F82E02C022E39B
:10555000F22E07EB21E04FEB61E080916F030E9498
:105560008B3880E00E94D5386C0148E250E060E260
:105570000E94E1194E0125E0820E911C94E0692EF3
:1055800000E0512CE12C712C5401F40181914F0168
:10559000F816B0F0171104C061E0660D0E2D01C0C1
:1055A000662DE1E0F0E0EC0FFD1FEE0DF11D7082C5
:1055B000E394C601850D911D0E94CB190196580EEA
:1055C000739463946394F4E07F12DFCF112321F18D
:1055D000F501E10FF11D608170E042E0C6018696A1
:1055E0000E947F29113029F460915A0370915B0366
:1055F00005C0123041F460915C0370E043E0C601E5
:1056000081960E947F298FEF810F823028F48EE1EE
:10561000F60184A38FE185A38FEF0E940539282F1F
:10562000807426FF07C0002329F00150FE01E00F1F
:10563000F11D118127FF10C2802F90E001964E2DA1
:1056400050E08417950728F40F5FFE01E00FF11D6D
:1056500011810E1528F4FE01E00FF11D81818113E7
:1056600019811093630320FF69C0F501E10FF11D5B
:10567000908140915A0350915B031130D9F030F082
:105680001230B1F1133009F44BC058C0CA016AE0BE
:1056900070E00E949B396C5F6093640380915C03AF
:1056A000861710F48093640310925C0381E080936A
:1056B000700342C0F91608F441C060915F03709115
:1056C0006003FB01E91BF109F0936003E0935F03C2
:1056D0004F5F5F4F50935B0340935A038091660383
:1056E000909167030196909367038093660326C0A9
:1056F000F91620F140915F0350916003BA01691BD4
:1057000071097093600360935F0380915C038F5F06
:1057100080935C03809165038F5F809365030EC067
:10572000F91660F080916A0380936C0380916B039B
:1057300080936D031092610310926203267009F446
:1057400078C11092620375C1D0906A03C0906B0358
:10575000B090610307EB21E04FEB61E080916F03B4
:105760000E948B3880E00E94D5387C0148E250E0EE
:1057700060E20E94E11960E0C7010E94CB19182F76
:1057800060915F037091600344E0C701810F911D38
:105790000E947F291A5F62E0C701810F911D0E945C
:1057A000CB19180F60915C0370E043E0C701810FD3
:1057B000911D0E947F291B5F61E0C701810F911D30
:1057C0000E94CB19180F60915A0370915B0343E05C
:1057D000C701810F911D0E947F291B5F63E0C701F4
:1057E000810F911D0E94CB1960915D0370915E0342
:1057F000810F43E0F701E80FF11DCF010E947F29DF
:105800008985882399F0BB2051F06C2D8D2D0E9445
:10581000DB329CEF980F923010F0813009F4B12CFC
:105820008A8581950E9405398601D0C08FEF0E943C
:105830000539F82E80FF5FC060916D03662301F18A
:1058400080916C03D81203C0C61609F400C12091E0
:105850005F03309160032B30310578F02A50310915
:105860003093600320935F032C2D4D2D0E943C321A
:1058700080915C03815080935C0310926D03E7C0BC
:10588000B110E5C06C2D8D2D0E94CB32843A41F1D0
:1058900078F4843829F130F48238F1F0F8F4813862
:1058A00019F120C0823AC1F0C8F4813AE9F01AC077
:1058B000843CB1F030F4823C79F080F4813CA1F07A
:1058C00011C0823E49F018F4813E71F00BC0833E56
:1058D00029F0843E29F006C087E807C085EA05C0A4
:1058E00083EC03C08BE401C089E6809369031092C6
:1058F0006803BB24B3948F2D867019F081E08093E8
:105900006203F4FE06C0F1E0FC1518F40FEF0C0D75
:1059100001C00C2DF5FE03C0063008F40F5FF6FE43
:1059200005C0DD2029F01FEF1D0D03C01D2D01C096
:1059300010E0F7FE03C0153008F41F5FC01202C06C
:10594000D116C9F060E087E00E94861CBB2099F068
:10595000C01609F47EC0D12E202F412F6C2D8D2D25
:105960000E943C3261E087E00E94861C80915C03CB
:10597000815080935C0380916903882301F10E9428
:105980002B399091680380FD06C09E3208F0B12C3F
:105990001092690314C080916903981720F49F5FE7
:1059A000909368030CC010926903602F812F0E94AE
:1059B000AD3280915C03815080935C03B12C809167
:1059C0005C03811103C081E080937003F0906E034B
:1059D000F29480EFF822BB2091F0609169036E325F
:1059E00080F0809168038E3260F08D52982F6D5256
:1059F00070E080E00E949B39F62E82E003C080E0D8
:105A000001C081E0202F412F6F2D90E00E9447348C
:105A100020916D03222339F040916C036F2D83E0B8
:105A200090E00E94473410936A0300936B03B09296
:105A3000610380916E038F5F80936E0381E02091FC
:105A40005A0330915B03232B59F480E009C0B12C39
:105A500052CFD11281CF8FCF882309F402CEF9CD56
:105A60002B960FB6F894DEBF0FBECDBFDF91CF915E
:105A70001F910F91FF90EF90DF90CF90BF90AF906C
:105A80009F908F907F906F905F90089580915D03BD
:105A900090915E0308950F931F93CF93DF9382E05D
:105AA00090E00E94B5350E941336EC010097C9F0D2
:105AB00000E010E020E030E044E650E0BC0185E08A
:105AC0000E946836CC59DF4FD0937603C09375039C
:105AD00010927203109273031092740381E080930A
